:100000000C9463000C948B000C948B000C948B006C
:100010000C948B000C948B000C948B000C948B0034
:100020000C948B000C948B000C948B000C942C0380
:100030000C948B000C948B000C948B000C948B0014
:100040000C9430020C948B000C94FA020C94D402A1
:100050000C948B000C948B000C948B000C948B00F4
:100060000C948B000C948B000000000024002700EF
:100070002A0000000000250028002B0000000000DE
:1000800023002600290004040404040404040202DA
:100090000202020203030303030301020408102007
:1000A0004080010204081020010204081020000012
:1000B0000008000201000003040700000000000027
:1000C0000000330E2B0E11241FBECFEFD8E0DEBF91
:1000D000CDBF11E0A0E0B1E0E8E6F7E202C0059094
:1000E0000D92A835B107D9F722E0A8E5B1E001C02B
:1000F0001D92A03BB207E1F710E0C2E6D0E004C0D9
:100100002197FE010E948C11C136D107C9F70E94C8
:10011000AA080C94A7130C9400000895CF92DF92C4
:10012000EF92FF920F931F93CF93DF936C017A01AD
:100130008B01C0E0D0E0CE15DF0589F0D8016D91CC
:100140008D01D601ED91FC910190F081E02DC60169
:100150000995892B11F47E0102C02196ECCFC701CD
:10016000DF91CF911F910F91FF90EF90DF90CF9093
:100170000895089580E090E00895FC01538D448D2A
:10018000252F30E0842F90E0821B930B541710F042
:10019000CF96089501970895FC01918D828D98174F
:1001A00061F0828DDF01A80FB11D5D968C91928D5B
:1001B0009F5F9F73928F90E008958FEF9FEF089558
:1001C000FC01918D828D981731F0828DE80FF11D21
:1001D000858D90E008958FEF9FEF0895FC01918D3C
:1001E000228D892F90E0805C9F4F821B91098F7335
:1001F000992708958BED91E00E94EE0021E0892B74
:1002000009F420E0822F0895FC01848DDF01A80FFE
:10021000B11DA35ABF4F2C91848D90E001968F732E
:100220009927848FA689B7892C93A089B1898C914D
:1002300080648C93938D848D981306C00288F38913
:10024000E02D80818F7D80830895EF92FF920F9340
:100250001F93CF93DF93EC0181E0888F9B8D8C8D72
:10026000981305C0E889F989808185FD24C0F62EA0
:100270000B8D10E00F5F1F4F0F731127E02E8C8D39
:10028000E8120CC00FB607FCFACFE889F989808123
:1002900085FFF5CFCE010E940401F1CF8B8DFE01C9
:1002A000E80FF11DE35AFF4FF0820B8FEA89FB89BB
:1002B0008081806207C0EE89FF896083E889F989BF
:1002C00080818064808381E090E0DF91CF911F91F5
:1002D0000F91FF90EF900895CF93DF93EC01888DFD
:1002E0008823C9F0EA89FB89808185FD05C0A8893A
:1002F000B9898C9186FD0FC00FB607FCF5CF8081C0
:1003000085FFF2CFA889B9898C9185FFEDCFCE0109
:100310000E940401E7CFDF91CF91089580E090E043
:10032000892B29F00E94FA0081110C940000089595
:100330000E9489130F931F93CF93DF938C01EB01DE
:10034000FC01808191810097B1F06881798161150C
:10035000710579F0428153812C813D814217530709
:1003600040F00E94A0138C819D81F80195838483C5
:1003700013C00E94271288819981F801918380839C
:100380008A819B81938382838C819D8195838483E1
:10039000198218821B821A821D821C82DF91CF91E2
:1003A0001F910F910895FC01808191810C94271277
:1003B0000F931F93CF93DF93EC018881998100976E
:1003C00029F02A813B812617370788F48B016F5F5C
:1003D0007F4F0E94BF12009761F0998388831B832F
:1003E0000A832C813D81232B11F4FC01108281E0D2
:1003F00001C080E0DF91CF911F910F9108953FB729
:10040000F8948091C6019091C701A091C801B09164
:10041000C90126B5A89B05C02F3F19F00196A11D63
:10042000B11D3FBFBA2FA92F982F8827820F911D8A
:10043000A11DB11DBC01CD0142E0660F771F881FD1
:10044000991F4A95D1F708952FB7F8946091C2018A
:100450007091C3018091C4019091C5012FBF08958F
:100460001F920F920FB60F9211242F933F938F93E9
:100470009F93AF93BF938091C2019091C301A091CC
:10048000C401B091C5013091C10123E0230F2D3784
:1004900020F40196A11DB11D05C026E8230F029688
:1004A000A11DB11D2093C1018093C2019093C3018E
:1004B000A093C401B093C5018091C6019091C7017A
:1004C000A091C801B091C9010196A11DB11D8093F1
:1004D000C6019093C701A093C801B093C901BF9111
:1004E000AF919F918F913F912F910F900FBE0F90E1
:1004F0001F901895EF92FF920F931F93CF93DF9366
:10050000EC017B018A01BA010E94D801288139815E
:1005100081110DC02115310519F0C9010E94271262
:10052000198218821D821C821B821A8206C01D83BA
:100530000C83B701C9010E94A013CE01DF91CF91B6
:100540001F910F91FF90EF900895FB01DC01119630
:100550001C921E9213961C921E92129715961C9234
:100560001E9214978617970749F060817181611573
:10057000710521F0448155810C947A020895FC01A3
:100580001182108213821282158214826115710504
:1005900051F0FB0101900020E9F73197AF01461BB4
:1005A000570B0C947A0208951F920F920FB60F9278
:1005B00011242F933F934F935F936F937F938F9368
:1005C0009F93AF93BF93EF93FF938BED91E00E94C6
:1005D0000401FF91EF91BF91AF919F918F917F9116
:1005E0006F915F914F913F912F910F900FBE0F90A0
:1005F0001F9018951F920F920FB60F9211242F93F0
:100600008F939F93EF93FF93E091EB01F091EC01B7
:100610008081E091F101F091F20182FD12C09081A0
:100620008091F4018F5F8F732091F501821751F053
:10063000E091F401F0E0E552FE4F958F8093F401D4
:1006400001C08081FF91EF919F918F912F910F9029
:100650000FBE0F901F9018951F920F920FB60F921A
:1006600011242F933F934F935F936F937F938F93B7
:100670009F93AF93BF93EF93FF938091580187FFB0
:1006800005C010928500109284001BC02091580173
:10069000022E000C330B80919C0290E02817390742
:1006A00084F480915801082E000C990BFC01EE0F88
:1006B000FF1F8E0F9F1FFC01E858FD4F808186FDB4
:1006C00015C0809158018F5F809358012091580187
:1006D000022E000C330B80919C0290E02817390702
:1006E000C4F4809158018C3064F113C0809158019A
:1006F000082E000C990BFC01EE0FFF1F8E0F9F1FA1
:10070000FC01E858FD4F808160E08F730E94E6068F
:10071000D8CF8091840090918500049680349C49C4
:1007200018F480E49CE905C08091840090918500D4
:10073000049690938900809388008FEF80935801EE
:100740003BC0209184003091850080915801082E93
:10075000000C990BFC01EE0FFF1F8E0F9F1FFC0179
:10076000E858FD4F81819281820F931F90938900F9
:100770008093880080915801082E000C990BFC0191
:10078000EE0FFF1F8E0F9F1FFC01E858FD4F808169
:1007900086FF12C080915801082E000C990BFC01B5
:1007A000EE0FFF1F8E0F9F1FFC01E858FD4F808149
:1007B00061E08F730E94E606FF91EF91BF91AF91C8
:1007C0009F918F917F916F915F914F913F912F9169
:1007D0000F900FBE0F901F901895833081F028F472
:1007E000813099F08230A1F008958730A9F08830E7
:1007F000B9F08430D1F4809180008F7D03C0809166
:1008000080008F7780938000089584B58F7702C031
:1008100084B58F7D84BD08958091B0008F7703C02B
:100820008091B0008F7D8093B0000895CF92DF92C9
:10083000EF92FF92DC01A03282E0B8070CF03EC0DC
:10084000B7FD06C0A53BB1052CF0A4EBB0E002C09B
:10085000A0E0B0E08091AA0228E830E06901C81A5F
:10086000D10887FDD394CC0CDD1CCC0CDD1C0D2CE9
:10087000000CEE08FF088091AB0228E532E0281B4F
:10088000310987FD3395220F331F220F331FA90132
:10089000330F660B770B9A01AB012C193D094E09FA
:1008A0005F090E94EA0F24EB30E040E050E00E9434
:1008B000C00FC20ED31EE41EF51ED6019091A902F0
:1008C0009C3098F58091AA0248E850E0481B5109F5
:1008D00087FD5395440F551F440F551FA417B507A7
:1008E0008CF08091AB0228E532E0281B310987FDAE
:1008F0003395220F331F220F331FAD012A173B07F9
:100900000CF4A90142505109440F551F2FB7F89418
:10091000892F90E0FC01EE0FFF1F8E0F9F1FFC013F
:10092000E858FD4F528341832FBFFF90EF90DF9037
:10093000CF9008956F927F928F929F92AF92BF92C5
:10094000CF92DF92EF92FF920F931F93CF93DF939B
:10095000EC018B01DB011496AD90BC90159735012D
:10096000B1E06B1A7108E0E0F0E02FEF3FEFE12C0F
:10097000F12C80E090E09E2E8F2E6E167F0694F173
:10098000481759073CF1BF016F5F7F4F6B01EA15B4
:10099000FB0560F4D8016D917C916115710531F012
:1009A0006E0F7F1FDB016C916B3331F0E615F7059D
:1009B00019F0922E832E0AC0019679016FEFE61A84
:1009C000F60AE615F70511F49C2C8D2CF601292D5D
:1009D000382DD1CF590167012E153F0560F469010B
:1009E000570109C048175907ACF369E471E0CE011B
:1009F0000E94BF023EC069E471E0CE010E94BF02C6
:100A0000F80184819581C816D90698F575018A1573
:100A10009B0508F47C01D801ED91FC911197EE0D36
:100A2000FF1DB08010826D917C916C0D7D1D611554
:100A3000710561F0FB0101900020E9F73197AF01EA
:100A4000461B570BCE010E947A020CC08881998107
:100A5000009711F00E942712198218821D821C82B1
:100A60001B821A82F80120813181F901EE0DFF1DF0
:100A7000B082CE01DF91CF911F910F91FF90EF9047
:100A8000DF90CF90BF90AF909F908F907F906F90AE
:100A90000895FC0124813581232B49F065E271E042
:100AA000808191810E94971321E0892B09F020E039
:100AB000822F0895009769F0FC0101900020E9F76A
:100AC0003197AF01481B590BBC018BED91E00C94A1
:100AD0008E0080E090E008958F929F92AF92BF9237
:100AE0000F931F93CF93DF93CDB7DEB7A1970FB6C8
:100AF000F894DEBF0FBECDBF19A2423008F44AE021
:100B00008E010F5D1F4F842E912CA12CB12CA501BD
:100B100094010E942910E62FB901CA010150110960
:100B2000EA3014F4E05D01C0E95CD801EC93232BBA
:100B3000242B252B61F7C8010E945A05A1960FB6F8
:100B4000F894DEBF0FBECDBFDF91CF911F910F9103
:100B5000BF90AF909F908F9008950C945A058F92FC
:100B60009F92AF92BF92CF92DF92EF92FF92CF937C
:100B7000DF936B017C019B01AC010E9474118823FF
:100B800019F08CE491E027C046015701E894B7F8CA
:100B90002FEF3FEF4FE75FE7C501B4010E947411EB
:100BA00081110DC02FEF3FEF4FE75FE7C501B401A3
:100BB0000E949C0E18161CF480E591E00CC02FEFEB
:100BC0003FEF4FE75FE4C701B6010E946F111816AF
:100BD00074F484E591E0DF91CF91FF90EF90DF9086
:100BE000CF90BF90AF909F908F900C945A052FEFAD
:100BF0003FEF4FE75FECC701B6010E949C0E87FDF7
:100C0000E8CF20E030E0A901C701B6010E949C0EA8
:100C100087FF11C0E091DB01F091DC010190F081D0
:100C2000E02D6DE28BED91E00995EC01F7FAF0947F
:100C3000F7F8F09402C0C0E0D0E02AE037ED43EAD4
:100C40005BE3C701B6010E945B104B015C010E948F
:100C500040116B017C010E94A10E9B01AC01C501FA
:100C6000B4010E945A104B015C014AE0C701B60171
:100C70000E946C05C80FD91FE091DB01F091DC01E7
:100C80000190F081E02D6EE28BED91E00995C80FA7
:100C9000D91F20E030E040E251E4C501B4010E94D8
:100CA000020F4B015C010E9440116B01E12CF12C01
:100CB0004AE0C701B6010E946C05C80FD91FC701E1
:100CC000B6010E94A10E9B01AC01C501B4010E94B6
:100CD0005A1020E030E040E251E40E94020F0E94EE
:100CE000401180E090E04AE00E946C058C0F9D1F4F
:100CF000DF91CF91FF90EF90DF90CF90BF90AF90BA
:100D00009F908F9008950F931F930E9424026093E9
:100D1000E3017093E4018093E5019093E601E09193
:100D2000DB01F091DC010284F385E02D8BED91E095
:100D3000099597FF1FC00E9424020091E3011091C2
:100D4000E4012091E5013091E601DC01CB01801B3B
:100D5000910BA20BB30B0091DF011091E0012091E8
:100D6000E1013091E20180179107A207B307B8F2C1
:100D70008FEF9FEF1F910F910895CF93DF93282F4F
:100D800030E0F901E255FF4F8491F901E656FF4F3B
:100D9000D491F901EA57FF4FC491CC2391F081110E
:100DA0000E94ED03EC2FF0E0EE0FFF1FE458FF4F21
:100DB000A591B491EC91ED2381E090E021F480E0E5
:100DC00002C080E090E0DF91CF9108951F93CF9310
:100DD000DF93282F30E0F901E255FF4F8491F901AC
:100DE000E656FF4FD491F901EA57FF4FC491CC2347
:100DF000C9F0162F81110E94ED03EC2FF0E0EE0FE9
:100E0000FF1FEE58FF4FA591B4918FB7F8941111C1
:100E100005C09C91ED2FE095E92302C0EC91ED2BEC
:100E2000EC938FBFDF91CF911F910895CF93DF9304
:100E300090E0FC01E656FF4F2491FC01EA57FF4F7A
:100E40008491882361F190E0880F991FFC01E85993
:100E5000FF4FC591D491FC01EE58FF4FA591B4917D
:100E6000611109C09FB7F8948881209582238883F7
:100E7000EC912E230BC0623061F49FB7F894388157
:100E8000822F809583238883EC912E2B2C939FBFF8
:100E900006C08FB7F894E8812E2B28838FBFDF918F
:100EA000CF9108956F927F928F929F92AF92BF924F
:100EB000CF92DF92EF92FF920F931F93CF93DF9326
:100EC0001F92CDB7DEB70E9424020091D701109186
:100ED000D8012091D9013091DA016B017C01C01A4F
:100EE000D10AE20AF30A2091D3013091D4012130D2
:100EF000310529F00FEC17E020E030E004C007EEE8
:100F000013E020E030E0C016D106E206F30608F454
:100F1000FAC06093D7017093D8018093D901909360
:100F2000DA0180E090E0A0ECBFE78093CA019093E3
:100F3000CB01A093CC01B093CD018093CE019093CF
:100F4000CF01A093D001B093D10160E08091D20194
:100F50000E94E60661E08091D2010E94160780910E
:100F6000D3019091D401019739F50E94FF014B0103
:100F70005C0132E1C32ED12CE12CF12C0E94FF0147
:100F8000DC01CB0188199909AA09BB09883E934065
:100F9000A105B10558F021E0C21AD108E108F10815
:100FA00088EE880E83E0981EA11CB11CC114D104E8
:100FB000E104F10419F704C08BE79CE00197F1F715
:100FC00060E08091D2010E94160761E08091D20119
:100FD0000E94E606612C712CE12CF12C00E010E05F
:100FE0002DEFD22E0E94FF01962E8D2D8170C82EDE
:100FF000A82E880FBB080E94FF01262F29192B3528
:1010000018F081E090E02FC08091D20129830E94E6
:10101000BD0629818A159B0571F3D7FC07C0CC203A
:1010200029F0000F111F2F3108F001602FE1D216B7
:1010300039F08FE3D81205C0380100E010E001C09C
:101040007801D39420E5D212CDCF6F2D7727C72C0E
:10105000D12C862D8E0D860F870D90E0801791077D
:1010600039F082E090E09093D6018093D5014BC097
:101070008091D3019091D401019791F480E090E0A8
:101080000E94A10E6093CE017093CF018093D00196
:101090009093D101B60180E090E00E94A10E27C09C
:1010A000B70180E090E00E94A10E2DEC3CEC4CECEE
:1010B0005DE30E94020F6093CE017093CF01809395
:1010C000D0019093D101B30177FF05C07F776624EB
:1010D0007724661A770AB301770C880B990B0E9464
:1010E000A30E2DEC3CEC4CEC5DE30E94020F6093F0
:1010F000CA017093CB018093CC019093CD011092E3
:10110000D6011092D5010F90DF91CF911F910F91D1
:10111000FF90EF90DF90CF90BF90AF909F908F9017
:101120007F906F9008958E3008F08E5087708064A5
:1011300080937C0080917A00806480937A00809113
:101140007A0086FDFCCF809178002091790090E0B4
:10115000922B0895CF93DF93CDB7DEB76E970FB67E
:10116000F894DEBF0FBECDBF789484B5826084BD95
:1011700084B5816084BD85B5826085BD85B581609B
:1011800085BD80916E00816080936E001092810019
:1011900080918100826080938100809181008160D4
:1011A0008093810080918000816080938000809195
:1011B000B10084608093B1008091B0008160809321
:1011C000B00080917A00846080937A0080917A00E8
:1011D000826080937A0080917A00816080937A00A7
:1011E00080917A00806880937A001092C100E0912B
:1011F000EB01F091EC0182E08083E091E701F09156
:10120000E8011082E091E901F091EA018FEC80831E
:101210001092F301E091EF01F091F00186E08083FC
:10122000E091ED01F091EE01808180618083E09199
:10123000ED01F091EE01808188608083E091ED0105
:10124000F091EE01808180688083E091ED01F09162
:10125000EE0180818F7D808361E082E00E9416072D
:1012600061E082E00E94E60661E084E00E941607E9
:1012700061E084E00E94E60661E087E00E941607D4
:1012800060E087E00E94E60683E08093D20110923E
:10129000D4011092D3010E942402DC01CB01885BAF
:1012A0009B40A109B1098093D7019093D801A093E5
:1012B000D901B093DA0182E090E09093D401809359
:1012C000D3010E9452078091D5019091D6018130BF
:1012D000910521F49093D4018093D3018091A902C8
:1012E0008C3008F051C061E089E00E9416078091BF
:1012F000A902E82FF0E09F01220F331FE20FF31F36
:10130000E858FD4F9081907C996090831092AA02DA
:101310001092AB026CE00E9479112CE0829FB00128
:10132000112440E050E09A01260F371FF901EE0F1B
:10133000FF1F2E0F3F1FF901E858FD4F908196FDCA
:1013400016C04F5F5F4F4C30510569F781110FC0D8
:101350001092800082E080938100109285001092AC
:101360008400B19A80916F00826080936F00E09159
:10137000A902F0E0CF01880F991FE80FF91FE85884
:10138000FD4F80818064808380E090E00E9416049D
:1013900041E050E06CE171E08DE992E00E947A0258
:1013A000CC24CA9483E0D82EE12CF12C0E94240294
:1013B0006093BD017093BE018093BF019093C00103
:1013C0000E9424024B015C0160937D0170937E01B9
:1013D00080937F01909380018091610190916201DF
:1013E000A0916301B091640124013501481A590AA2
:1013F0006A0A7B0A20ED421627E052066104710456
:1014000008F466C000915F01109160010A30110577
:10141000CCF58092610190926201A0926301B0923A
:1014200064010E9452076091CA017091CB018091C2
:10143000CC019091CD010E94391170935E016093AF
:101440005D01072E000C880B990B0E94A30E9B01D7
:10145000AC016091590170915A0180915B019091AA
:101460005C010E945B106093590170935A01809354
:101470005B0190935C010F5F1F4F1093600100931D
:101480005F0126C0B801110F880B990B0E94A30EB3
:101490009B01AC016091590170915A0180915B01EF
:1014A00090915C010E94C7106093B9017093BA01DA
:1014B0008093BB019093BC011092600110925F0178
:1014C0001092590110925A0110925B0110925C0126
:1014D0000E94240260936D0170936E0180936F01EE
:1014E000909370010091000110910101209102017F
:1014F000309103012B013C01401A510A620A730A20
:1015000048EE441643E054066104710408F466C0D2
:1015100000916B0110916C010A301105CCF56093BC
:10152000000170930101809302019093030182E115
:101530000E94930823E630E0DC010E948511A70198
:1015400096010E94C00F30936A0120936901B9018E
:10155000330F880B990B0E94A30E9B01AC01609185
:1015600065017091660180916701909168010E9408
:101570005B1060936501709366018093670190939F
:1015800068010F5F1F4F10936C0100936B0126C021
:10159000B801110F880B990B0E94A30E9B01AC019F
:1015A0006091650170916601809167019091680179
:1015B0000E94C7106093B5017093B6018093B70184
:1015C0009093B80110926C0110926B01109265011A
:1015D0001092660110926701109268010E94240225
:1015E00060938101709382018093830190938401C1
:1015F0000091790110917A0120917B0130917C0159
:1016000024013501401A510A620A730A40ED44165A
:1016100047E054066104710408F467C00091770143
:10162000109178010A301105D4F560937901709317
:101630007A0180937B0190937C010E945207609114
:10164000CE017091CF018091D0019091D1010E9483
:1016500039117093760160937501072E000C880B89
:10166000990B0E94A30E9B01AC01609171017091D6
:10167000720180917301909174010E945B106093DC
:101680007101709372018093730190937401B8019A
:101690006F5F7F4F709378016093770126C0B80128
:1016A000110F880B990B0E94A30E9B01AC01609156
:1016B00071017091720180917301909174010E9487
:1016C000C7106093B1017093B2018093B3019093FE
:1016D000B40110927801109277011092710110926A
:1016E000720110927301109274010E94240260939F
:1016F00091017093920180939301909394010091D2
:101700008D0110918E0120918F01309190012B015C
:101710003C01401A510A620A730A48EE441643E03B
:1017200054066104710408F467C000918B011091A4
:101730008C010A301105D4F560938D0170938E01F0
:1017400080938F01909390018EE00E94930823E68E
:1017500030E0DC010E948511A70196010E94C00FB4
:1017600030938A0120938901B901330F880B990BBB
:101770000E94A30E9B01AC016091850170918601CE
:1017800080918701909188010E945B106093850190
:10179000709386018093870190938801B8016F5FF1
:1017A0007F4F70938C0160938B0126C0B801110F9D
:1017B000880B990B0E94A30E9B01AC0160918501DF
:1017C0007091860180918701909188010E94C710D5
:1017D0006093AD017093AE018093AF019093B0011F
:1017E00010928C0110928B0110928501109286014B
:1017F00010928701109288018BED91E00E94EE001B
:10180000181619069CF569E471E0CE0101960E9454
:10181000BF020E94830697FD1EC08A309105D9F051
:101820008F8318860D811E810F5F1F4FB801CE0177
:1018300001960E94D801882361F329813A818D8124
:101840009E81BE01695F7F4F820F931F0E94A0138C
:101850001E830D83DECFBE016F5F7F4F83EA92E070
:101860000E949A01CE0101960E94D30163EA72E0C0
:10187000CE0107960E94A50240E050E0BE01695FDC
:101880007F4FCE0101960E949A04BE016F5F7F4F89
:101890008DE992E00E949A01CE0101960E94D30147
:1018A000CE0107960E94D30163EA72E0CE01019651
:1018B0000E94A50241E050E0BE016F5F7F4FCE0164
:1018C00049960E949A04CE0101960E94D30163EAD0
:1018D00072E0CE0101960E94A50242E050E0BE01F6
:1018E0006F5F7F4FCE0143960E949A04CE0101960E
:1018F0000E94D30163EA72E0CE0101960E94A50224
:1019000043E050E0BE016F5F7F4FCE010D960E9415
:101910009A04CE0101960E94D30163EA72E0CE01DF
:1019200001960E94A50244E050E0BE016F5F7F4F28
:10193000CE0107960E949A04CE0101960E94D3011F
:101940008091BD019091BE01A091BF01B091C001F5
:101950004091A9015091AA016091AB017091AC0135
:10196000841B950BA60BB70B883F9A42A105B105C6
:1019700008F4ABC08EE191E00E94AD056091B90121
:101980007091BA018091BB019091BC010E94AF059A
:1019900081E291E00E94AD0582E00E94BD06892BA4
:1019A00019F485E291E002C08CE191E00E94AD055E
:1019B00087E291E00E94AD056091B5017091B6019A
:1019C0008091B7019091B8010E94AF058BE291E040
:1019D0000E94AD0584E00E94BD06892B19F485E2C2
:1019E00091E002C08CE191E00E94AD058FE291E0B0
:1019F0000E94AD056091B1017091B2018091B30177
:101A00009091B4010E94AF0584E391E00E94AD057E
:101A10008091A7019091A801019749F485E291E096
:101A20000E94AD051092A8011092A70104C08CE19C
:101A300091E00E94AD0588E391E00E94AD056091C0
:101A4000AD017091AE018091AF019091B0010E9403
:101A5000AF058DE391E00E94AD058091A5019091C5
:101A6000A601019749F485E291E00E94AD0510922C
:101A7000A6011092A50104C08CE191E00E94AD0581
:101A800081E491E00E94AD058DE992E00E94490554
:101A9000882319F085E491E002C08AE491E00E9475
:101AA0005A0587E491E00E945A058091BD0190910A
:101AB000BE01A091BF01B091C0018093A901909394
:101AC000AA01A093AB01B093AC018DE992E00E9412
:101AD0004905882309F4ACC0CE0143960E9449050C
:101AE000882311F060E001C061E082E00E94E60618
:101AF000CE0149960E944905882311F060E001C09B
:101B000061E084E00E94E606CE0107960E94490546
:101B1000882309F43FC00E9424024B015C016093BA
:101B2000990170939A0180939B0190939C018091FD
:101B3000950190919601A0919701B091980124018F
:101B40003501481A590A6A0A7B0A88EE481683E06A
:101B5000580661047104B8F080E090E00E94160419
:101B600090ED491697E059066104710460F088E72A
:101B700090E00E9416048092950190929601A092A6
:101B80009701B092980181E090E09093A801809332
:101B9000A70104C080E090E00E941604CE010D96DB
:101BA0000E944905882309F43FC00E9424024B018A
:101BB0005C016093A1017093A2018093A3019093B3
:101BC000A40180919D0190919E01A0919F01B091EF
:101BD000A00124013501481A590A6A0A7B0A24EF38
:101BE000421621E0520661047104B8F061E087E01A
:101BF0000E94E60634E9431631E15306610471049C
:101C000060F060E087E00E94E60680929D0190927D
:101C10009E01A0929F01B092A00181E090E090937C
:101C2000A6018093A50104C060E087E00E94E6065B
:101C3000CE0107960E94D301CE010D960E94D301DA
:101C4000CE0143960E94D301CE0149960E94D30152
:101C50000E948E01ABCB8DE992E00E94D30183EA12
:101C600092E00C94D3011092DE011092DD0188EE17
:101C700093E0A0E0B0E08093DF019093E001A093B7
:101C8000E101B093E2018EE091E09093DC0180935A
:101C9000DB0185EC90E09093E8018093E70184EC10
:101CA00090E09093EA018093E90180EC90E09093BA
:101CB000EC018093EB0181EC90E09093EE01809336
:101CC000ED0182EC90E09093F0018093EF0186ECBF
:101CD00090E09093F2018093F1011092F401109240
:101CE000F5011092F6011092F70180919C028C3060
:101CF000A0F491E0980F90939C028093A90290E049
:101D0000FC01EE0FFF1F8E0F9F1FFC01E858FD4FD7
:101D100088EB9BE09283818303C08FEF8093A902BD
:101D200069E471E083EA92E00E94BF0269E471E035
:101D30008DE992E00C94BF020E94DE0E08F481E06F
:101D40000895E89409C097FB3EF4909580957095AE
:101D500061957F4F8F4F9F4F9923A9F0F92F96E9F7
:101D6000BB279395F695879577956795B795F1116C
:101D7000F8CFFAF4BB0F11F460FF1BC06F5F7F4F09
:101D80008F4F9F4F16C0882311F096E911C077231B
:101D900021F09EE8872F762F05C0662371F096E824
:101DA000862F70E060E02AF09A95660F771F881FF3
:101DB000DAF7880F9695879597F90895990F000897
:101DC000550FAA0BE0E8FEEF16161706E807F9070D
:101DD000C0F012161306E407F50798F0621B730BA8
:101DE000840B950B39F40A2661F0232B242B252B29
:101DF00021F408950A2609F4A140A6958FEF811DCC
:101E0000811D08950E94150F0C94860F0E94780F73
:101E100038F00E947F0F20F0952311F00C946F0F83
:101E20000C94750F11240C94BA0F0E94970F70F345
:101E3000959FC1F3950F50E0551F629FF001729F6F
:101E4000BB27F00DB11D639FAA27F00DB11DAA1F7E
:101E5000649F6627B00DA11D661F829F2227B00DCB
:101E6000A11D621F739FB00DA11D621F839FA00D56
:101E7000611D221F749F3327A00D611D231F849FA6
:101E8000600D211D822F762F6A2F11249F575040FD
:101E90009AF0F1F088234AF0EE0FFF1FBB1F661F78
:101EA000771F881F91505040A9F79E3F510580F041
:101EB0000C946F0F0C94BA0F5F3FE4F3983ED4F389
:101EC000869577956795B795F795E7959F5FC1F7E5
:101ED000FE2B880F911D9695879597F9089597F990
:101EE0009F6780E870E060E008959FEF80EC0895C0
:101EF00000240A94161617061806090608950024E9
:101F00000A9412161306140605060895092E039462
:101F1000000C11F4882352F0BB0F40F4BF2B11F4D6
:101F200060FF04C06F5F7F4F8F4F9F4F089557FD35
:101F30009058440F551F59F05F3F71F04795880F37
:101F400097FB991F61F09F3F79F0879508951216CE
:101F500013061406551FF2CF4695F1DF08C016167A
:101F600017061806991FF1CF86957105610508942B
:101F70000895E894BB2766277727CB0197F9089542
:101F8000052E97FB1EF400940E94D70F57FD07D033
:101F90000E94291007FC03D04EF40C94D70F5095E3
:101FA0004095309521953F4F4F4F5F4F0895909545
:101FB0008095709561957F4F8F4F9F4F08950E9438
:101FC0004B10A59F900DB49F900DA49F800D911D67
:101FD00011240895B7FF0C94DF0F0E94DF0F821BBE
:101FE000930B08952F923F924F925F926F927F9240
:101FF0008F929F92AF92BF92CF92DF92EF92FF9219
:102000000F931F93CF93DF93CDB7DEB7CA1BDB0BC4
:102010000FB6F894DEBF0FBECDBF09942A88398869
:1020200048885F846E847D848C849B84AA84B98470
:10203000C884DF80EE80FD800C811B81AA81B9817C
:10204000CE0FD11D0FB6F894DEBF0FBECDBFED0190
:102050000895A1E21A2EAA1BBB1BFD010DC0AA1FE9
:10206000BB1FEE1FFF1FA217B307E407F50720F001
:10207000A21BB30BE40BF50B661F771F881F991F7C
:102080001A9469F760957095809590959B01AC01C5
:10209000BD01CF010895A29FB001B39FC001A39FCE
:1020A000700D811D1124911DB29F700D811D112491
:1020B000911D08955058BB27AA270E9472100C94B6
:1020C000860F0E94780F38F00E947F0F20F039F4BD
:1020D0009F3F19F426F40C94750F0EF4E095E7FB7E
:1020E0000C946F0FE92F0E94970F58F3BA176207ED
:1020F00073078407950720F079F4A6F50C94B90FBF
:102100000EF4E0950B2EBA2FA02D0B01B901900112
:102110000C01CA01A0011124FF27591B99F0593F56
:1021200050F4503E68F11A16F040A22F232F342F9E
:102130004427585FF3CF469537952795A795F040EC
:102140005395C9F77EF41F16BA0B620B730B840B01
:10215000BAF09150A1F0FF0FBB1F661F771F881FB9
:10216000C2F70EC0BA0F621F731F841F48F4879511
:1021700077956795B795F7959E3F08F0B0CF939503
:10218000880F08F09927EE0F9795879508950E947C
:10219000DB100C94860F0E947F0F58F00E94780F7E
:1021A00040F029F45F3F29F00C946F0F51110C940B
:1021B000BA0F0C94750F0E94970F68F39923B1F32F
:1021C000552391F3951B550BBB27AA27621773075D
:1021D000840738F09F5F5F4F220F331F441FAA1FF1
:1021E000A9F335D00E2E3AF0E0E832D091505040AD
:1021F000E695001CCAF72BD0FE2F29D0660F771F5B
:10220000881FBB1F261737074807AB07B0E809F040
:10221000BB0B802DBF01FF2793585F4F3AF09E3FC5
:10222000510578F00C946F0F0C94BA0F5F3FE4F3F4
:10223000983ED4F3869577956795B795F7959F5F08
:10224000C9F7880F911D9695879597F90895E1E054
:10225000660F771F881FBB1F621773078407BA07B3
:1022600020F0621B730B840BBA0BEE1F88F7E0950E
:1022700008950E9440116894B1110C94BA0F08950A
:102280000E949F0F88F09F5798F0B92F9927B75158
:10229000B0F0E1F0660F771F881F991F1AF0BA950A
:1022A000C9F714C0B13091F00E94B90FB1E00895A0
:1022B0000C94B90F672F782F8827B85F39F0B93F92
:1022C000CCF3869577956795B395D9F73EF49095BD
:1022D0008095709561957F4F8F4F9F4F08950E9415
:1022E000DE0E08F48FEF08950E94DE0E880B990B26
:1022F0000895991B79E004C0991F961708F0961B62
:10230000881F7A95C9F7809508950E944B10B7FFF2
:102310000895821B930B0895EE0FFF1F0590F49113
:10232000E02D0994CF93DF938230910510F482E081
:1023300090E0E091AE02F091AF0220E030E0C0E02A
:10234000D0E0309711F14081518148175907C0F012
:102350004817590761F482819381209719F09B8374
:102360008A832BC09093AF028093AE0226C02115C2
:10237000310519F04217530718F49A01BE01DF0125
:10238000EF010280F381E02DDCCF2115310509F149
:10239000281B390B2430310590F412968D919C91B5
:1023A00013976115710521F0FB019383828304C0AB
:1023B0009093AF028093AE02FD01329644C0FD01BE
:1023C000E20FF31F81939193225031092D933C9397
:1023D0003AC02091AC023091AD02232B41F4209100
:1023E0000601309107013093AD022093AC02209199
:1023F0000401309105012115310541F42DB73EB797
:102400004091080150910901241B350BE091AC0269
:10241000F091AD02E217F307A0F42E1B3F0B281733
:10242000390778F0AC014E5F5F4F2417350748F04D
:102430004E0F5F1F5093AD024093AC028193919376
:1024400002C0E0E0F0E0CF01DF91CF9108950F935B
:102450001F93CF93DF93009709F48CC0FC01329750
:10246000138212820091AE021091AF020115110584
:1024700081F420813181820F931F2091AC02309131
:10248000AD022817390779F5F093AD02E093AC025D
:1024900071C0D80140E050E0AE17BF0750F412966B
:1024A0002D913C911397AD012115310509F1D90109
:1024B000F3CF9D01DA013383228360817181860F1E
:1024C000971F8217930769F4EC0128813981260F41
:1024D000371F2E5F3F4F318320838A819B819383F7
:1024E0008283452B29F4F093AF02E093AE0242C001
:1024F0001396FC93EE931297ED01499159919E0129
:10250000240F351FE217F30771F480819181840F46
:10251000951F029611969C938E93828193811396B8
:102520009C938E931297E0E0F0E0D80112968D9183
:102530009C911397009719F0F8018C01F6CF8D91BB
:102540009C9198012E5F3F4F820F931F2091AC0208
:102550003091AD022817390769F4309729F41092A9
:10256000AF021092AE0202C0138212821093AD022B
:102570000093AC02DF91CF911F910F910895A0E0DD
:10258000B0E0E5ECF2E10C94F60FEC01009721F4D9
:10259000CB010E949211B8C0FC01E60FF71F9C010D
:1025A00022503109E217F30708F4ACC0D9010D91AC
:1025B0001C91119706171707B0F00530110508F4A4
:1025C0009FC0C80104978617970708F499C0025066
:1025D0001109061B170B019311936D937C93CF0187
:1025E0000E9427128DC05B01A01AB10A4C01800E17
:1025F000911EA091AE02B091AF0240E050E0E12CFC
:10260000F12C109709F44AC0A815B905D1F56D90C1
:102610007C901197630182E0C80ED11CCA14DB04C0
:1026200080F1A3014A195B096A0182E0C80ED11C3E
:102630001296BC9012971396AC91B5E0CB16D104CC
:1026400040F0B282A38351834083D9016D937C9380
:102650000AC00E5F1F4FC301800F911FF9019183C4
:102660008083EB2DFA2FE114F10431F0D70113969A
:10267000FC93EE93129744C0F093AF02E093AE0246
:102680003FC08D919C9111974817590708F4AC01F0
:102690007D0112960D90BC91A02DB3CF8091AC021C
:1026A0009091AD0288159905E1F446175707C8F4D3
:1026B0008091040190910501009741F48DB79EB778
:1026C0004091080150910901841B950BE817F90707
:1026D000C8F4F093AD02E093AC02F901718360831A
:1026E0000FC0CB010E9492117C01009759F0A80104
:1026F000BE010E948E13CE010E942712C70104C0A2
:10270000CE0102C080E090E0CDB7DEB7EEE00C94E1
:10271000121081E090E0F8940C94A713FB01DC0107
:1027200002C001900D9241505040D8F70895FB012E
:10273000DC018D91019080190110D9F3990B089556
:10274000FB01DC0101900D920020E1F7089510E0FB
:10275000C2E6D0E004C0FE010E948C112196C3366F
:08276000D107C9F7F894FFCF7F
:102768008C0000000000B00280000000000025017D
:102778008E00BD006C01EE00CC00E0003000743A21
:10278800002C463A0031002C4C3A002C423A002CDE
:1027980041483A002C533A002C534D3A002C503AF9
:1027A800002C4D3A004D000D0A0041006E616E008C
:0827B800696E66006F76660091
:107E0000112484B714BE81FFF0D085E080938100F7
:107E100082E08093C00088E18093C10086E0809377
:107E2000C20080E18093C4008EE0C9D0259A86E02C
:107E300020E33CEF91E0309385002093840096BBD3
:107E4000B09BFECF1D9AA8958150A9F7CC24DD24C4
:107E500088248394B5E0AB2EA1E19A2EF3E0BF2EE7
:107E6000A2D0813461F49FD0082FAFD0023811F036
:107E7000013811F484E001C083E08DD089C08234E0
:107E800011F484E103C0853419F485E0A6D080C0E4
:107E9000853579F488D0E82EFF2485D0082F10E0AE
:107EA000102F00270E291F29000F111F8ED06801E7
:107EB0006FC0863521F484E090D080E0DECF843638
:107EC00009F040C070D06FD0082F6DD080E0C81688
:107ED00080E7D80618F4F601B7BEE895C0E0D1E017
:107EE00062D089930C17E1F7F0E0CF16F0E7DF06D8
:107EF00018F0F601B7BEE89568D007B600FCFDCFD4
:107F0000A601A0E0B1E02C9130E011968C91119780
:107F100090E0982F8827822B932B1296FA010C0160
:107F200087BEE89511244E5F5F4FF1E0A038BF0790
:107F300051F7F601A7BEE89507B600FCFDCF97BE46
:107F4000E89526C08437B1F42ED02DD0F82E2BD052
:107F50003CD0F601EF2C8F010F5F1F4F84911BD097
:107F6000EA94F801C1F70894C11CD11CFA94CF0C13
:107F7000D11C0EC0853739F428D08EE10CD085E9AC
:107F80000AD08FE07ACF813511F488E018D01DD067
:107F900080E101D065CF982F8091C00085FFFCCF94
:107FA0009093C60008958091C00087FFFCCF809118
:107FB000C00084FD01C0A8958091C6000895E0E648
:107FC000F0E098E1908380830895EDDF803219F02E
:107FD00088E0F5DFFFCF84E1DECF1F93182FE3DFCA
:107FE0001150E9F7F2DF1F91089580E0E8DFEE27F6
:047FF000FF270994CA
:027FFE00040479
:0400000300007E007B
:00000001FF
